:100000003823002095140000911400009114000082
:1000100000000000000000000000000000000000E0
:10002000000000000000000000000000911400002B
:10003000000000000000000091140000310D0000DD
:1000400091140000911400001102000091140000AE
:10005000911400009114000009030000C10C00007D
:10006000D10C0000E10C0000F10C0000010D0000BB
:10007000110D00008902000099020000A902000091
:10008000B9020000C9020000D9020000E902000024
:10009000F902000091140000911400009114000076
:1000A0009114000010B5064C2378002B07D1054BA6
:1000B000002B02D0044800E000BF0123237010BDD4
:1000C0002000002000000000B0170000084B10B511
:1000D000002B03D00749084800E000BF0748036829
:1000E000002B00D110BD064B002BFBD09847F9E741
:1000F0000000000024000020B0170000B01700002E
:100100000000000037B5050010202F4A2F4C9369DE
:100110000343936123785BB2002B45DBEB78073018
:10012000002B41D02A799A423ED86A799A423BD82C
:100130000222237893432370E3795BB2002BFBDB2D
:100140006B78002B2FD0AB7801A90B700120204BCE
:100150009847204B012098472B78002B02D0012094
:100160001D4B9847EB782979013B042200291CD0CC
:1001700021780A4322702A79013A12011343E27965
:1001800052B2002AFBDBDBB263706B79002B10D11B
:100190002B78002B15D08022237813432370E3792A
:1001A0005BB2002BFBDB00203EBD21789143217028
:1001B000E5E7E27952B2002AFBDB013BDBB2A37038
:1001C000E6E722780223E8E7000400400010004040
:1001D00031130000A91200004D130000002903D1C3
:1001E000024B1860080070471720FCE774000020DD
:1001F000002806D10122044B5A71044B03321A60C5
:1002000070471720FCE7C0460010004000E100E006
:10021000012210B5034B9A71034B1B68002B00D0D1
:10022000984710BD001000407400002070B50126F2
:10023000144B8000C4582368227E657E9B7B15404A
:100240001D40354204D0A3682000984723689E7360
:100250000226354204D0E3682000984723689E7345
:100260001026354204D023692000984723689E73E6
:100270002026354204D063692000984723689E7386
:1002800070BDC0467800002010B50020014B984793
:1002900010BDC0462D02000010B50120014B98474B
:1002A00010BDC0462D02000010B50220014B98473A
:1002B00010BDC0462D02000010B50320014B984729
:1002C00010BDC0462D02000010B50420014B984718
:1002D00010BDC0462D02000010B50520014B984707
:1002E00010BDC0462D02000010B50620014B9847F6
:1002F00010BDC0462D02000010B50720014B9847E5
:1003000010BDC0462D02000070B50A4A0A4C936920
:10031000A16825690B43A360084B9361002D04D1AC
:10032000E268A3689343A36070BD28686B68984730
:10033000AD68F3E70004004200000020FFFF0F0F4C
:100340000223054A116A0B4313620123034A137007
:1003500011781942FCD170470004004000040042AB
:10036000022230B5184C636B134202D0636B934387
:1003700063630D790B884A882B43802513436D00F6
:10038000AA4202D18022920013438A79002A01D026
:1003900004221343CA79002A01D0402213430028C3
:1003A00010D14A7917303F2A0BD8FC211204890357
:1003B0000A401343636380231B01E2681A42FCD0A6
:1003C000002030BD1720FCE700080040F0B50024F5
:1003D00089B0009201933F23002600272500069054
:1003E00007910393039A134B012000219847B619F4
:1003F0007F41069B079A03400A40049605971343E2
:1004000003D0012333431E00059F019BBB4209D843
:1004100002D1009BB34205D8009A019BB61A9F41B6
:1004200004430D43039B5A1E0392DBD22000290094
:1004300009B0F0BDA116000010B549080400002362
:100440004020A14201D210BD0300581C091B80B2FC
:100450008C42F9D94020FF2BF5D813800020F2E719
:10046000F0B585B01E000AAB0D00197803004B43B0
:1004700003924027AB4217D8002E18D10200330058
:1004800008001B4C3100A0472A0001003300194C22
:100490003000A04700220123121A8B41140C1804CB
:1004A00004430027039B1C80380005B0F0BD0024E6
:1004B000012EF6D10A00230021000D4EB047009016
:1004C00001910B000200210028000A4CA047802364
:1004D00006009B019842E7D8009A019B690FE8004B
:1004E000A047F400041BE4B264033443D9E7C046D8
:1004F000B9160000CD03000037B50D4C0500237878
:10050000002B01D000290CD001A90C20094B0D7043
:1005100098470C20084B98470123002065702370F2
:100520003EBD63780800AB42FAD01D20F8E7C04614
:100530003C00002031130000A9120000394A0300DA
:1005400000B50800934233D007D8374A934214D0FD
:10055000364A93421FD0002317E0354A93423AD0DF
:10056000344A934244D0344A9342F4D100230329BD
:100570000BD800F0FFFF502A2C2E0023032904D8AB
:1005800000F0F8FF430205072C4B180000BD2C4B70
:10059000FBE72C4BF9E700230329F6D800F0EAFF2C
:1005A00037020406284BF0E7284BEEE7284BECE730
:1005B00000230329E9D800F0DDFF2C020406254BB7
:1005C000E3E7254BE1E7254BDFE7254BDDE7254B4F
:1005D000DBE7254BD9E700230329D6D800F0CAFF73
:1005E0001D020406214BD0E7214BCEE7214BCCE77F
:1005F00000230329C9D800F0BDFF120204061E4BD8
:10060000C3E71E4BC1E71E4BBFE71E4BBDE70323ED
:10061000BBE71D4BB9E71D4BB7E71D4BB5E71D4BBE
:10062000B3E7C0460010004200080042000C004240
:1006300000180042001C00420014004203000500A4
:1006400003000600030007000300010003001E0072
:1006500003001F000300090003000A0003000B0051
:1006600003001100030012000300130003000D003B
:1006700003000E0003000F00030017000300180022
:100680000300190003000400030008000300100029
:1006900003000C000300160070B586B06946094BD4
:1006A0006A4670CB70C170CB70C10023990051585D
:1006B000814202D1D8B206B070BD0133062BF5D10C
:1006C0000020F8E768170000C0467047802330B567
:1006D000DB058DB069460093002301938B72CB72CA
:1006E0008B75CB7506930B774B77E1235B020493F5
:1006F000C423FF229B03039301230A8101225B424F
:1007000008930993124B0A750A93124B4A750B937F
:10071000114D6A4611492800114B9847002814D101
:100720002C68104B200098471F2318401E3B834025
:100730000D4A13602A68138A1BB2002BFBDB0223CD
:100740002268134323600DB030BDC046E0E7C046C9
:1007500002001800020019009C0000200014004252
:1007600009080000950C000000E100E070B5084C9D
:10077000084D200000220849A8472000012207490F
:10078000A84703230234E27F1343E37770BDC046DA
:100790009C000020110B0000C9060000BD070000EE
:1007A00010B5012202490348034B984710BDC046CB
:1007B000980000209C000020290B000010B50024A8
:1007C00009480A4A03881178094AD154D2180133DA
:1007D0005470947003800A2902D10122054B1A70CB
:1007E000054B984710BDC0461A0300209800002012
:1007F000C000002018030020A10700000268138A2F
:100800001BB2002BFBDB7047F0B507008FB0734BBA
:1008100039600800160002919847029B04001A688C
:10082000012305201A4200D0BDE0029A1730156856
:100830000222154000D0B6E0A01C8340684A0D3467
:10084000116AE4B20B431362737F08A90B70200096
:10085000644B98472000644B98472900634B707F96
:100860009847F37A0AAC7B71337DBB71737DFB7162
:100870003B6803931800594B9847336825800493CD
:10088000F36875680593B37D0D300693002D00D194
:100890008BE080235B059D420ED1F37D002B0BD1B5
:1008A0003369C0B20793524B984722000100514B65
:1008B00007989847002876D14F4B3800984706ABE9
:1008C0001B8A039A5381049B059A13431D43069B7D
:1008D0005C07F37D2C43002B01D104331C43357D91
:1008E000737D6D041B042B43F27AB57A15431D43C7
:1008F0003389FF2B03D08022520414431D43337FDE
:10090000002B03D13D4B9B789B0701D580231C43D3
:100910003800394B9847039B38005D60364B984749
:10092000039B00251C60802309AC2370336A65702B
:100930000A93736AE5700B93B36AA5700C93F36A1C
:1009400003930D93102006AAAB001218D058E9B2F9
:10095000002802D102982A4B9847431C05D02070EA
:10096000000CC0B22100274B98470135042DE9D176
:1009700000247B1CFC83BC60FC603C61BC617C612E
:10098000BC83DC77BB1CDC77FB1CDC773B1DDC7796
:100990003868124B984705001B4B1C4998472000AC
:1009A0001B4BAD00EF500FB0F0BDF37D002B08D016
:1009B0001023220000932B00B1693069154CA04729
:1009C00078E73369C0B20793094B984710230100B9
:1009D000009322002B000798F0E7C046990600001C
:1009E0000004004031130000A9120000F9040000C7
:1009F0007D13000039040000FD07000000200041C5
:100A00003D050000351400005D0C0000490B00009E
:100A10001C0300206104000070B5C2790D001C2386
:100A2000002A0CD0C28B173B002A08D1054B046862
:100A3000984702232583A27B1A42FCD0002318008A
:100A400070BDC046FD070000F7B506000F00150099
:100A50001720002A27D0F3790530002B23D03368E4
:100A600030000193184B9847002480235B0201213A
:100A7000019A927B0A4217D0727963189BB2395D52
:100A8000012A16D01C0089B2013D30000F4BADB2D7
:100A90009847002DE9D1802302225B020199897BCE
:100AA00011420CD00020FEBD013B002BDFD11220F3
:100AB000F9E7FB5C02341B02A4B21943E4E7013BF3
:100AC000002BEBD1F3E7C046FD070000190A000038
:100AD000F7B5050003680E0001930B4B170098470C
:100AE000AC8B0A4BA4B2002C02D098470520FEBD67
:100AF000AF83984705236E61019A0335EB77013B7D
:100B000053732000F3E7C046E90E00001D0F0000FC
:100B1000931C9B001950012393401A000130C37F9E
:100B20001343C3777047000010B51723002A06D07F
:100B300084790533002C02D0024B9847030018003B
:100B400010BDC046D10A0000F8B5424B8000C45821
:100B500025682B8A1BB2002BFBDBAB7B6F7B621CF7
:100B60001F40A31CDE7F0123D27F16401F4218D0F6
:100B7000E28B002A3ED0A269511C1378A1616179F1
:100B8000DBB2012930D09BB2DB05DB0D2B83E38B7D
:100B9000013B9BB2E383002B03D101332B73013361
:100BA0006B7302231F4208D000222B73231DDA77B8
:100BB000F30702D52000A36898470422174212D0F9
:100BC000A38B002B44D02B8ADBB2590721D0022102
:100BD0000B4211D0E31C1632DA772982730702D553
:100BE000236920009847F8BD5178023209020B436F
:100BF000A261C9E72B73D4E7134204D01E21E31C82
:100C0000D9772A82EAE701221342E7D0E31C1321B5
:100C1000F6E72B8B6169DB05DB0DDAB20A706269DE
:100C2000511C61616179012904D11B0A5370636908
:100C300001336361A38B013B9BB2A383002BD2D111
:100C400004222A73E21CD377B307CCD5E368C8E744
:100C50002A73C8E71C03002070470000F0B5094C58
:100C6000094A2378002B09D11E00084F084DD750A0
:100C7000EE500433182BFAD1173B2370800011502B
:100C8000F0BDC0463E00002040000020590C00008E
:100C90001C03002007B507236A4613700133537005
:100CA000013393700133D3700133137101335371E6
:100CB000024B98476B4618560EBDC0469906000079
:100CC00010B5024B00201B68984710BD4000002063
:100CD00010B5024B01205B68984710BD4000002012
:100CE00010B5024B02209B68984710BD40000020C1
:100CF00010B5024B0320DB68984710BD4000002070
:100D000010B5024B04201B69984710BD400000201D
:100D100010B5024B05205B69984710BD40000020CC
:100D20008022024B12019A617047C0460044004184
:100D30007047000007B500206B466A46188058804F
:100D400027235371263B9371D3710F331371694677
:100D5000074B98470221074B5A6B0A435A6380227C
:100D60005868D20002435A60034B196007BDC04661
:100D7000610300000008004000E100E01FB500230F
:100D800001A94B700B724B7203330B7005334B6030
:100D90000120034B98470120024B984705B000BD46
:100DA0003D110000E111000007B500226B466946C5
:100DB0001A70012368464B700C2183700A3343710B
:100DC000024BC1700271984707BDC0460501000083
:100DD00010B50021034B044898470020034B984767
:100DE00010BDC046DD010000210D0000F101000032
:100DF000154B10B500209847144B013898420DD878
:100E0000C021134A090650601248036A1B021B0ADC
:100E10000B43036200239360073313600E4B984724
:100E20000E4B98470E4B98470E4B98470E4B9847E2
:100E30000E4B98470E4B984701220E4B1A70BFF38A
:100E40005F8F62B610BDC04621120000FFFFFF0099
:100E500010E000E000ED00E0790E0000CD0600009B
:100E60006D070000350D00007D0D0000A90D00008C
:100E7000D10D00001C00002070B5094B00209847E0
:100E8000FA21084C89000500A047074B0749186064
:100E90002800A0470522064B1860064B1A6070BD5B
:100EA00021120000891500001400002040420F00AC
:100EB0001800002010E000E030B580240021074B2E
:100EC00064021A68064B013800D230BD002AFAD0FD
:100ED0005A6099601D682542FCD0F4E71400002098
:100EE00010E000E070470000094B196800290BD1A1
:100EF000EFF31080074A002805D172B6BFF35F8F69
:100F000005490870012111701A6801321A60704792
:100F1000580000205C0000201C000020084B1A68CC
:100F2000013A1A601B68002B09D1064B1B78002B75
:100F300005D00122044B1A70BFF35F8F62B6704771
:100F4000580000205C0000201C00002010B507287D
:100F500005D800F00FFB0604042727100913002012
:100F600010BD134BD868FBE7124B13481B6A9B0557
:100F70009B0FD840F4E70E4B1869F1E70C4C0020AA
:100F800023689B07ECD510230A49CA681A42FCD093
:100F900023685B0709D5094B00209847A3689BB2DB
:100FA0005843DDE780200002DAE70548D8E7C0466D
:100FB000600000200008004000127A007D1300004D
:100FC000006CDC0270B584780278457801204026F8
:100FD0000540204080240849AD010B6AC001B3439D
:100FE0002B43A3430343032002400448120203405F
:100FF00013430B6270BDC04600080040FFFCFFFFBA
:1010000000B5072805D800F0B5FA1304040B0D1934
:10101000061F172000BD0223174A116A0B431362F3
:101020000020F7E70223144A91690B439361F7E725
:101030000223114A118A0B431382F1E702230E4A5D
:10104000918A0B439382EBE702230C4A11680B430E
:101050001360802311689943074B89B2998410214A
:10106000D8680842FCD09168D962516899621268C8
:1010700092B29A84D4E7C046000800406000002085
:101080007FB5C2221E21194BD2009A60184A002453
:10109000536801AD8B43536001232B70E0B22900EC
:1010A000144B013498471C2CF8D100246B460126C0
:1010B0005C709E701C7068460F4B98470F4B062063
:1010C00098470F4B98470F4B29001C725C729C721B
:1010D000DC72062320002B700B4B6E606C702C7240
:1010E0006C7298472000094B98477FBD000800406C
:1010F0000040004131130000C50F00000110000046
:101100001D110000000400403D110000E11100002D
:10111000014B5878C0097047000C00400823054A6D
:1011200091690B4393610123034A137011781942AB
:10113000FCD1704700040040000C0040F8B50C786A
:101140004B782402060005000443002B02D08023C4
:10115000DB021C434B7A002B02D080231B031C4371
:101160004B68012B12D95D1E1D400222002D06D0B6
:101170001D02802335439B0207E0013552009A424D
:10118000FBD380232D0235435B031C430B7A002BDA
:1011900002D080239B031C430C4FB8470028FBD18F
:1011A0000B4B98470B4B1E70B8470028FCD10A4BDD
:1011B0009D601D00B8470028FCD180226B68520258
:1011C00013401C436C60054B9847F8BD111100009B
:1011D000E90E0000080C0040000C00401D0F00004C
:1011E00070B50500094CA0470028FBD1084B984773
:1011F000084B1D70A0470028FCD18023064A5B02E3
:1012000051680B435360054B984770BD11110000A6
:10121000E90E0000040C0040000C00401D0F00000F
:10122000F7B50700184EB0470028FBD1174B984779
:10123000174B1F700193B0470028FCD1154D164B7A
:101240006868C004C00E98470400019B1F706B685B
:10125000DB02DB0F0193114B1F70B0470028FCD15C
:10126000AD680F4B9847019B2D022D0C002B08D128
:10127000012D04D9200029000A4B984704002000C2
:10128000FEBD0135EC40FAE711110000E90E000047
:10129000040C0040000C00404D0F0000080C004002
:1012A0001D0F00008915000010B50400064B98477B
:1012B000064B074A1C7080235188DB010B43538087
:1012C000044B984710BDC046E90E0000020C0040D8
:1012D000000C00401D0F000010B504000E4B984795
:1012E0000E4B0F4A1C700F4B0F4C58885988000545
:1012F000114059805988000F2140598011008022E7
:10130000D2015C881442FCD15A8800020A40024390
:101310005A80064B984710BDE90E0000020C0040B1
:10132000FFF0FFFF000C0040FFBFFFFF1D0F00009C
:1013300010B50C78034B240204439847024BA4B227
:101340005C8010BDD9120000000C004010B50400F4
:10135000064B9847C021064B064A1C705388090269
:101360000B435380044B984710BDC046E90E000064
:10137000020C0040000C00401D0F000010B50400DE
:10138000064B9847064B1C70064B5C88064B2405A1
:10139000240F98472000054B984710BDE90E000028
:1013A000020C0040000C00401D0F00002112000044
:1013B000D37830B5002B35D11478802C03D080231E
:1013C00024065B02234302255478AC4306D194786B
:1013D000002C24D18024A402234341605478013C92
:1013E000012C01D8124C2340A0248DB2E4052C43DB
:1013F0001C438462D0240D0C24062C431C438462BD
:10140000D478002C0AD15B0303D59378012B0CD13F
:1014100081615378013B012B00D8816030BDC0242D
:10142000E402D9E741600023DEE74161F1E7C0460D
:10143000FFFFFBFF10B503000A004409C1090020AB
:10144000814202D10449E00140181F210B401E399E
:101450009940024B984710BD00440041B113000071
:101460007047000010B5054B9847054B9847054B52
:101470009847054B9847054B984710BD81100000D1
:10148000E50E00004103000061140000611400003B
:10149000FEE700001148124970B5884204D00023CD
:1014A000104CCA18A24213D300210F4B0F4A93428B
:1014B00012D3FF210E4B0F4A8B43936080230E4AB9
:1014C00051680B4353600D4B98470D4B9847FEE70F
:1014D000C55804331560E4E702C3E8E7B01700001D
:1014E0000000002020000020200000203803002001
:1014F0000000000000ED00E0004000410D1700007A
:10150000051500007FB5104B9847104B98470022F7
:101510000F4B10491A6068460F320F4B98470F4C1B
:101520000F22694620000E4B9626FA259847B600F2
:101530006D0032000B4920000B4B984728000B4BE5
:1015400098470B4B9847F4E765140000F10D000035
:101550003403002080170000551700009C00002075
:10156000490A000098000020290B0000B90E000075
:10157000A107000002B4714649084900095C49000E
:101580008E4402BC7047C046002243088B4274D38D
:1015900003098B425FD3030A8B4244D3030B8B4274
:1015A00028D3030C8B420DD3FF22090212BA030C7D
:1015B0008B4202D31212090265D0030B8B4219D35E
:1015C00000E0090AC30B8B4201D3CB03C01A52417E
:1015D000830B8B4201D38B03C01A5241430B8B42C6
:1015E00001D34B03C01A5241030B8B4201D30B03AF
:1015F000C01A5241C30A8B4201D3CB02C01A5241D6
:10160000830A8B4201D38B02C01A5241430A8B4298
:1016100001D34B02C01A5241030A8B4201D30B0281
:10162000C01A5241CDD2C3098B4201D3CB01C01A9B
:10163000524183098B4201D38B01C01A52414309A5
:101640008B4201D34B01C01A524103098B4201D393
:101650000B01C01A5241C3088B4201D3CB00C01A00
:10166000524183088B4201D38B00C01A5241430878
:101670008B4201D34B00C01A5241411A00D201469D
:10168000524110467047FFE701B5002000F006F810
:1016900002BDC0460029F7D076E770477047C046C4
:1016A0009140031C90409C46203A9340194352427B
:1016B0006346D34019437047F0B5CE4647461504FC
:1016C0002D0C2E0080B50704140C3F0C9946030C1A
:1016D0007E435D43674363437F19340CE4199C46A2
:1016E000A54203D980235B029846C4444B4651432C
:1016F00043433604360C250C24046544A4195918B8
:10170000491920000CBC90469946F0BD70B50026E2
:101710000C4D0D4C641BA410A64209D1002600F00C
:1017200037F80A4D0A4C641BA410A64205D170BDBF
:10173000B300EB5898470136EEE7B300EB589847F3
:101740000136F2E79C1700009C1700009C17000070
:10175000A0170000002310B59A4200D110BDCC5C48
:10176000C4540133F8E7000000080042000C0042B6
:10177000001000420014004200180042001C004209
:1017800048656C6C6F20576F726C64210D0A000005
:10179000F8B5C046F8BC08BC9E467047CD000000B6
:1017A000F8B5C046F8BC08BC9E467047A5000000CE
:1017B0000000000008000000000000000000000021
:1017C00000000000401F00000800000001000000B1
:040000030000149550
:00000001FF
